:020000040000fa
:080000000002040000000000f2
:020000040000fa
:0400080006040000ea
:020000040000fa
:04000c0006040000e6
:020000040000fa
:0400100006040000e2
:020000040000fa
:0400140006040000de
:020000040000fa
:0400180006040000da
:020000040000fa
:04001c0006040000d6
:020000040000fa
:0400200006040000d2
:020000040000fa
:0400240006040000ce
:020000040000fa
:0400280006040000ca
:020000040000fa
:04002c0006040000c6
:020000040000fa
:0400300006040000c2
:020000040000fa
:0400340006040000be
:020000040000fa
:0400380006040000ba
:020000040000fa
:04003c0006040000b6
:020000040000fa
:0400400006040000b2
:020000040000fa
:04004400ec030000c9
:020000040000fa
:0400480006040000aa
:020000040000fa
:04004c0006040000a6
:020000040000fa
:0400500006040000a2
:020000040000fa
:04005400060400009e
:020000040000fa
:04005800060400009a
:020000040000fa
:04005c000604000096
:020000040000fa
:040060000604000092
:020000040000fa
:04006400060400008e
:020000040000fa
:04006800060400008a
:020000040000fa
:04006c000604000086
:020000040000fa
:040070000604000082
:020000040000fa
:04007400c8020000be
:020000040000fa
:04007800060400007a
:020000040000fa
:04007c000604000076
:020000040000fa
:040080000604000072
:020000040000fa
:04008400060400006e
:020000040000fa
:04008800060400006a
:020000040000fa
:04008c000604000066
:020000040000fa
:040090000604000062
:020000040000fa
:04009400060400005e
:020000040000fa
:04009800060400005a
:020000040000fa
:04009c000604000056
:020000040000fa
:0400a000f603000063
:020000040000fa
:0400a400fe03000057
:020000040000fa
:0400a800060400004a
:020000040000fa
:0400ac000604000046
:020000040000fa
:0400b0000604000042
:020000040000fa
:0400b400060400003e
:020000040000fa
:0400b800060400003a
:020000040000fa
:0400bc000604000036
:020000040000fa
:0400c0000604000032
:020000040000fa
:0400c400060400002e
:020000040000fa
:0400c800060400002a
:020000040000fa
:0400cc000604000026
:020000040000fa
:0400d0000604000022
:020000040000fa
:0400d400060400001e
:020000040000fa
:0400d800060400001a
:020000040000fa
:0400dc000604000016
:020000040000fa
:0400e0000604000012
:020000040000fa
:0400e400060400000e
:020000040000fa
:0400e800060400000a
:020000040000fa
:0400ec000604000006
:020000040000fa
:0400f0000604000002
:020000040000fa
:0400f40006040000fe
:020000040000fa
:0400f80006040000fa
:020000040000fa
:0400fc0006040000f6
:020000040000fa
:0401000006040000f1
:020000040000fa
:0401040006040000ed
:020000040000fa
:0401080006040000e9
:020000040000fa
:04010c0006040000e5
:020000040000fa
:0401100006040000e1
:020000040000fa
:0401140006040000dd
:020000040000fa
:0401180006040000d9
:020000040000fa
:04011c0006040000d5
:020000040000fa
:0401200006040000d1
:020000040000fa
:0401240006040000cd
:020000040000fa
:0401280006040000c9
:020000040000fa
:04012c0006040000c5
:020000040000fa
:0401300006040000c1
:020000040000fa
:0401340006040000bd
:020000040000fa
:0401380006040000b9
:020000040000fa
:04013c0006040000b5
:020000040000fa
:0401400006040000b1
:020000040000fa
:0401440006040000ad
:020000040000fa
:0401480006040000a9
:020000040000fa
:04014c0006040000a5
:020000040000fa
:0401500006040000a1
:020000040000fa
:04015400060400009d
:020000040000fa
:040158000604000099
:020000040000fa
:04015c000604000095
:020000040000fa
:0402080006040000e8
:020000040000fa
:04020c0006040000e4
:020000040000fa
:0402100006040000e0
:020000040000fa
:0402140006040000dc
:020000040000fa
:0402180006040000d8
:020000040000fa
:04021c0006040000d4
:020000040000fa
:0402200006040000d0
:020000040000fa
:0402240006040000cc
:020000040000fa
:0402280006040000c8
:020000040000fa
:04022c0006040000c4
:020000040000fa
:0402300006040000c0
:020000040000fa
:0402340006040000bc
:020000040000fa
:0402380006040000b8
:020000040000fa
:04023c0006040000b4
:020000040000fa
:0402400006040000b0
:020000040000fa
:04024400ec030000c7
:020000040000fa
:0402480006040000a8
:020000040000fa
:04024c0006040000a4
:020000040000fa
:0402500006040000a0
:020000040000fa
:04025400060400009c
:020000040000fa
:040258000604000098
:020000040000fa
:04025c000604000094
:020000040000fa
:040260000604000090
:020000040000fa
:04026400060400008c
:020000040000fa
:040268000604000088
:020000040000fa
:04026c000604000084
:020000040000fa
:040270000604000080
:020000040000fa
:04027400c8020000bc
:020000040000fa
:040278000604000078
:020000040000fa
:04027c000604000074
:020000040000fa
:040280000604000070
:020000040000fa
:04028400060400006c
:020000040000fa
:040288000604000068
:020000040000fa
:04028c000604000064
:020000040000fa
:040290000604000060
:020000040000fa
:04029400060400005c
:020000040000fa
:040298000604000058
:020000040000fa
:04029c000604000054
:020000040000fa
:0402a000f603000061
:020000040000fa
:0402a400fe03000055
:020000040000fa
:0402a8000604000048
:020000040000fa
:0402ac000604000044
:020000040000fa
:0402b0000604000040
:020000040000fa
:0402b400060400003c
:020000040000fa
:0402b8000604000038
:020000040000fa
:0402bc000604000034
:020000040000fa
:0402c0000604000030
:020000040000fa
:0402c400060400002c
:020000040000fa
:0402c8000604000028
:020000040000fa
:0402cc000604000024
:020000040000fa
:0402d0000604000020
:020000040000fa
:0402d400060400001c
:020000040000fa
:0402d8000604000018
:020000040000fa
:0402dc000604000014
:020000040000fa
:0402e0000604000010
:020000040000fa
:0402e400060400000c
:020000040000fa
:0402e8000604000008
:020000040000fa
:0402ec000604000004
:020000040000fa
:0402f0000604000000
:020000040000fa
:0402f40006040000fc
:020000040000fa
:0402f80006040000f8
:020000040000fa
:0402fc0006040000f4
:020000040000fa
:0403000006040000ef
:020000040000fa
:0403040006040000eb
:020000040000fa
:0403080006040000e7
:020000040000fa
:04030c0006040000e3
:020000040000fa
:0403100006040000df
:020000040000fa
:0403140006040000db
:020000040000fa
:0403180006040000d7
:020000040000fa
:04031c0006040000d3
:020000040000fa
:0403200006040000cf
:020000040000fa
:0403240006040000cb
:020000040000fa
:0403280006040000c7
:020000040000fa
:04032c0006040000c3
:020000040000fa
:0403300006040000bf
:020000040000fa
:0403340006040000bb
:020000040000fa
:0403380006040000b7
:020000040000fa
:04033c0006040000b3
:020000040000fa
:0403400006040000af
:020000040000fa
:0403440006040000ab
:020000040000fa
:0403480006040000a7
:020000040000fa
:04034c0006040000a3
:020000040000fa
:04035000060400009f
:020000040000fa
:04035400060400009b
:020000040000fa
:040358000604000097
:020000040000fa
:04035c000604000093
:020000040000fa
:100400006f8220000edf20000e0188000000000037
:10041000000020000000e000020032000001200087
:100420002002880014000700fa0007000000e00026
:1004300003003a00a0f12100010020000200370073
:100440000000200001002000810f70000100320038
:1004500014000700000020000000e000020032004d
:100460000000020000000000501f02000000000019
:100470000040da000000fe004440a900e003200034
:100480000000e0000300320000002000a00188000e
:100490004440a800000006008a1f78008b1f7800e7
:1004a0000000060091018800800478000000eb0045
:1004b0001a003700e284440032a0b4009905ba0063
:1004c000e284440032a0b4009906ba00e2844400f9
:1004d00032a0b4000006eb00476fde00fd07b2005b
:1004e000636ce10003003a00ebff07000000eb0043
:1004f0000a003700606ce10004003a00005deb0088
:100500008b05e900fdff3e00040037006168e10053
:10051000010032000086eb000b00070019c7ba008b
:100520001905ba000e04e00003003a000a00e000da
:10053000e0ff3a0000000600fe07b2009e018800be
:100540008a047800f5ff3700395dba008b05e900b1
:100550000c003200295dba008b05e900080032006a
:100560000c00e00003003a00e284440032a0b40032
:10057000f5ff370019ddba008b05e900faff3a00f4
:100580008904e800e184440032a0b40000000600c1
:100590003600f800809fbe00829fbe00849fbe0090
:1005a000869fbe000200fa003004800068006000f0
:1005b0000000e000800032000000eb00000f780037
:1005c00010168000640060000000e0000b003a009c
:1005d00050168000700060000000e000070032004c
:1005e00010168000700060000000e0000300320080
:1005f00010c0b30000e8b700630037001016800099
:10060000640060000000e0005a00320050168000d4
:10061000700060000000e00058003a0010168000f2
:10062000700060000000e0005600320020c0b300ff
:1006300000e8b700540037001e0fe800110020004a
:10064000d0c0b300230c0700a100200000c2b300fb
:10065000200c070011002000d0c0b3001d0c0700c3
:1006600010168000700060000000e00008003200fa
:100670001e007800e20f50000500360010c0b300e5
:1006800005e8b70040c0b30000e8b700330037000a
:1006900010168000700060000000e0002f003200a3
:1006a0001e007800e20f50002c003e0003c8bf007f
:1006b0000004e00014003a000568ef0010c0b30029
:1006c00003e8b70011002000d0c0b300010c070000
:1006d000b0ae2900ce0c070011002000d0c0b3003e
:1006e000fc0b0700a100200000c2b300f90b0700bb
:1006f00011002000d0c0b300f60b070030c0b300db
:1007000000e8b7001500370010c0b30005e8b700d7
:1007100002c8bf000040e80002e8b7000368ef002d
:1007200011002000d0c0b300ea0b070070af290011
:10073000b70c070011002000d0c0b300e50b070084
:10074000a100200000c2b300e20b0700110020004e
:10075000d0c0b300df0b07000068ef0002c8bf0085
:100760000004e00008003a00c0c3b30002e8b7008c
:100770000500370000000000030037000000000003
:1007800001003700000000001016800064006000c7
:100790000000e00008003200501680007000600089
:1007a0000000e000040032001016800070006000bd
:1007b0000000e000a0ff32008660a9000080fa007f
:1007c0004f03be004f02be004f01be004f00be00ef
:1007d0003600f900004006000000fa0084e0a9009d
:1007e00011e1a9000080fa00004006000000fa00b4
:1007f00087c0a9000080fa00004006000000fa004f
:1008000087e0a9000080fa00004006000040da00fe
:100810000000fe00000005000001be001e000700f1
:100820000470a70003f0a10003f8a30013003a002e
:100830006509b10010003200090035006928e100a7
:100840000200350001002800000005000000400003
:10085000818048008502e900fcff3a0000000600a4
:10086000f88f4200050035008100d1000080d300e0
:100870008502e800fcff3a00000006008000eb0063
:10088000000005004f89de008201780096013700e4
:100890006011b800a4013700c70ade00f107b200fa
:1008a000f50fb20008003200e1cf42000200320032
:1008b0000170a00024000500810f700001003200cb
:1008c0000408050044000500810f700002003a0092
:1008d000140005008502e9000000400081c04800c6
:1008e000fcff3b000170a00024000500889fbe00b3
:1008f0008a9fbe008c9fbe001b0020000202be002b
:100900000586680006002800060666004709de0026
:10091000f20fb200820032000243e8008000320091
:10092000c729de00f30fb2007d0032000343e80068
:100930007b003200f107b2000170a000f507b200a1
:100940000570a000c708dd004903de008680700046
:100950004700dd00c72add004923de0086827200e1
:100960004722dd0003055100040350008583580031
:100970000300310000004000818048000a05e900c2
:100980008c1f78008a9fbe000400500085805800ac
:100990000402420085824a00000040008180480035
:1009a0000005eb000004be006033b8000406be0082
:1009b0000d48e10056003100110009004dccd8006f
:1009c0000c01b8000d02b8008481410060824a0029
:1009d0008283530003045c0084845c0060055d0036
:1009e0000a00e00025003a00800578000d40e10093
:1009f00049003100880078000700780011000900e4
:100a00004d88d8000c01b8000d02b8008481410067
:100a100060824a006003110083835b0004045c0071
:100a2000e0845c000900e00021003a004f01be00b4
:100a30000300e0002b003200e301600007067300b2
:100a40008c81710001003200640070004200de0001
:100a50004e5edd000c007000c258de0001e0a00018
:100a60009b000700cf017800818071004f06be0017
:100a70004f05be004f04be00000006008c834300fb
:100a80000d044c00e0844c0060054d000000e900be
:100a90000a00e000d4ff32008c8343000d044c00b8
:100aa000e0844c0060054d000000e900ceff3700f7
:100ab0000c0343008d834b0060044c00e0844c0029
:100ac0000000e9000900e000d8ff32000c034300f9
:100ad0008d834b0060044c00e0844c000000e90072
:100ae000d2ff37004200de004e5edd000c007000d9
:100af000c258de0001e0a000cf0178000300e00052
:100b0000daff320060001000e0801800d7ff3700e5
:100b1000f0ff2f00aaff3700f0ff2f00b9ff3700ca
:100b20000404be0050000700870678000004fd00a2
:100b30008104fd004c000700078366000678a300cf
:100b4000030032000960a7000800be002c00370037
:100b50000d78a300020032000800be002800370014
:100b60000778a30026003a0001f0a10009f0a100d7
:100b70000668a30003003200f1ff2700f0ff2f00fa
:100b8000baff37000d68a300030032000800be0062
:100b90008c807000b5ff37000768a30007003a009b
:100ba0000648a30003003200f1ff2700f0ff2f00ea
:100bb000aeff37000d48a300030032006000b8000c
:100bc0008c807000a9ff37000748a30004003200a2
:100bd00001f82700000020008c807000a3ff370080
:100be0008e0007000004fd008104fd00020578006e
:100bf0008a0007000802be008a01780059ff37000a
:100c00000160a000120220005240880097ff3700c8
:100c10000100e000120032000500e0001000320088
:100c2000889fbe008a9fbe008c9fbe000006eb001e
:100c300001f8a3000300320060001000e0801800fb
:100c40000cf0a00005f8a3000300320060021200bf
:100c5000e0821a000cf0a2008005eb0041ff370093
:100c60006000b800020005002700200001f0a70086
:100c700017002000470bde00f60fb2000400320020
:100c80000643e8000a0032004702b30000000600f5
:100c900001037800f607b2000603700002003a0074
:100ca0000703b300000006008702b300000006003f
:100cb00001037800f607b20006037000020032005c
:100cc0000770a000000006000760a00000000600fa
:100cd00081017000270032008002eb0001f8a300c0
:100ce0000300320060001000e080180015002000b2
:100cf000f40720000202420020003400f703200025
:100d0000870360000604200000036300020820003f
:100d1000000161004700de00c909dd0000807100ac
:100d2000c708de000600e0000800320087037100fb
:100d3000060032001000b0000180b0000188a3005e
:100d400002003200c108de000402e800f107b20030
:100d5000f30f20000320e10003003d004722dd00e7
:100d6000810072002900370001f827000000eb0025
:100d7000260037006000b80000000600680212007c
:100d80007f20e100020034006000b8001f0037003f
:100d90006011b8007020e100040035008001780087
:100da000010078008000eb00700252000400e000b7
:100db00009003400f00312000719dd008419de0079
:100dc0000703dd00868171000400de00070bdd00f3
:100dd000060070008408de00f7ff270083836300ad
:100de0008703710006002800030363000700320038
:100df0000700e00003003a00610160000281730017
:100e0000020032001000b0000180b0000500a60012
:100e10000000060001f0a000000006004f0ade00fe
:100e20004709de00f107b200f20fb2000b003200fa
:100e3000f207b1000170a000c708dd00c901de00a3
:100e4000838070004700dd000400a600000006005b
:100e500060001000e080180000000600810f7000a4
:100e600001003a00000006008182cf000500e0008a
:100e700010003e008082cf00ee8242007028e10028
:100e80000400390007003e00800078000000eb00fd
:100e90000e003700708312008600de000500dd00c2
:100ea0000a003700708352008600dd000000eb006e
:100eb00006003700e28252008508dd0070831200d0
:100ec0000603de00868070000500dd007507b000b7
:100ed0000501ea000400a600000006006000100002
:100ee000e080180000000600881f780003047800e6
:100ef0000300e00007003d0060001000e0801800e3
:100f000060011900e081190002003b0001f02d0092
:100f1000030037000400070008f0a70001f0a0005c
:100f20004f04780000000600889fbe008a9fbe0024
:100f300000827000040271000482710026003200f9
:100f40000004be000200be006011b8006b09200062
:100f5000950220000182cf000a0039000541b1004e
:100f60000082cf00070039000541b1000982cf009f
:100f7000040039000541b1000882cf0001003900aa
:100f80000541b10005425200120032000a003b0048
:100f900082817100610164008100d1000080d30072
:100fa0008984d3000884d3008b05e8000442e8005c
:100fb000f7ff3a00070037000804440089844c001a
:100fc00000004800818048008b05e9000442e900e8
:100fd000f9ff3a00030007004f05be004f04be00b2
:100fe0000000060081002000618055000b003d00dc
:100ff0000b00200061fe2f000100e1001d00340005
:1010000082817100610164008904d1000884d300e9
:101010000000e800faff3a0071002000610064005f
:101020000300700002006000090032006104440007
:10103000e0844c000988a500050032008b05e8001b
:101040006808e10002003a008904d1000884d30056
:10105000f20f20000258e10005003d00c75ddd00f1
:10106000f907b200898075000800780000000600ca
:101070000bf827008b007800000005006f04b0001b
:10108000889fbe008a9fbe008c9fbe008e1f780086
:101090000006be000204be000200be00a506070056
:1010a0000203be000002be00d09f9f00e19f9f0090
:1010b000f29f9f0083a79f00b6af9f00c7af9f001e
:1010c0000005be00cfaa970005f0a1000602780037
:1010d0000000720081807200e00f5000e08f580025
:1010e000e40432000c00be0094b79f00a5b79f0037
:1010f0009006070092af9f00a3af9f000003be00c1
:10110000b0a79f00c1a79f000000200001ff23009f
:101110001fb29700afb29700800f5100818f590026
:1011200003003a00e00f5300e08f5b00d10432006f
:10113000afab970007f0a1001fab9700d6a79f00a9
:10114000e7a79f000000200001ff2700800f530049
:10115000818f5b0011003c0005003a003fa1970021
:10116000cfa19700e00f5100e08f59000b003a002b
:10117000800f5200818f5a0008003c0000002000c0
:1011800001ff2700800f5200818f5a0007003a00ac
:10119000e00f5500e08f5d00040032000c01be003e
:1011a0000800be00ba060700b00437006000b800af
:1011b000f0a79f0081af9f001fa99700afa99700dc
:1011c000e00f5100e08f590059003d002000200041
:1011d00001002000f0a79f0081af9f00f0ff2f00cb
:1011e000f1332400800f5200818f5a0050003c00e0
:1011f0006011b800f2a79f0083af9f00f0ff2f009f
:10120000f1fe2300800f5200818f5a004800340005
:1012100044a8de00cfa8de00f03fb1000180b1009d
:10122000f40f5000e08f58002200340042032000e9
:1012300000015100f2a79f000a01be007fa797009e
:101240000e07e900030033008301d1000281d300bf
:10125000fbff37000200be007fa797000e07e900e2
:10126000030033000000400081804800fbff37008e
:1012700090a79f00a1a79f006000b800f0a79f0063
:1012800081af9f001fa09700afa097008a0f50006a
:101290008b8f580026003a006000b80061006100a2
:1012a00062011000e0811800f2a79f0083af9f0049
:1012b0001f0037006011b800f2a79f0083af9f00a6
:1012c000e00f5500e08f5d0064003a0074001000ec
:1012d0000401be00000578000a05e90003003300a0
:1012e0008381d1000281d300fbff37000205be00dd
:1012f000000778000e07e900030033000a054500e7
:101300008b854d00fbff3700840f5500858f5d00f6
:101310002b003a006000b80061006100620110001b
:10132000e0811800f2a79f0083af9f0024003700e0
:10133000e00f5500e08f5d0048003a0000002000fb
:1013400001ff2700800f5200818f5a001c003a00d5
:101350000000200001012c000600400087804800aa
:101360003fa29700cfa29700040070008580700014
:10137000e00f5000e08f58003e043200f0ff2f00d5
:10138000f1fe2300800f5300818f5b0006003400c4
:101390003fab9700cfab9700e00f5300e08f5b00af
:1013a0003c043d00360437003fad9700cfad9700b9
:1013b000e00f5500e08f5d0031043d006d00370007
:1013c0000000200001ff2300800f5200818f5a008f
:1013d00009003a003fa89700cfa89700e00f5000ff
:1013e000e08f580028043d000c01be0000002000e2
:1013f00001f82300710037000000200001002400e4
:101400003fa99700cfa99700800f5100818f590005
:1014100003003a000c01be000c00be0012043700ad
:101420000000200001fe23003fad9700cfad9700e4
:10143000800f5500818f5d0008003a001fa89700bb
:10144000afa89700e00f5000e08f58000300350070
:101450000c00be004c040700040437000c00be0062
:1014600094b79f00a5b79f00f6af9f0087b79f0076
:101470000f0407000005be001fb29700afb297002f
:101480007fab97008fb397003fa19700cfa1970044
:10149000e00f5100e08f590038003a0000002000b2
:1014a00001ff2700800f5300818f5b00080032008e
:1014b000e00f5300e08f5b000500320000002000c9
:1014c00001ff2300800f5300818f5b002b003a0047
:1014d0003faa9700cfaa9700e00f5200e08f5a0072
:1014e0000a003d000a01be000000200001f82300b0
:1014f000f6af9f0087b79f00fcfc07000001be000d
:101500007fab97008fb39700010037000a01be0040
:101510001fad9700afad9700e00f5500e08f5d0065
:10152000db033d000000200001012c000603400009
:10153000878348007fa097008fa89700060370005c
:1015400087837000e00f5300e08f5b0003003a00d8
:101550001002200020418800150037007fa297006c
:101560008faa9700e10f5200e08f5a00c8033a009b
:101570000204be0009f0a200c60337001fa89700ae
:10158000afa89700e00f5000e08f580015003d0015
:101590007fa197008fa99700e00f5100e08f5900bd
:1015a00008003a0010022000204188000c01be0013
:1015b0000200be00ad0507000001be00cbfc070025
:1015c000aa0337007fa097008fa89700e10f500073
:1015d000e08f5800080032000200200003f82300ca
:1015e000070037000000200001f82300f0a79f004b
:1015f00081af9f00040037000200200003f82b0099
:10160000f2a79f0083af9f0000002000011e24006e
:10161000800f5200818f5a007600340000002000b5
:10162000013f2400800f5200818f5a0015003400c2
:10163000f0ff2f00f1fe2300800f5300818f5b002d
:1016400007003c006044b8003faa9700cfaa97006b
:10165000e00f5200e08f5a008e033d000600370075
:101660006044b8003fab9700cfab9700e00f53004a
:10167000e08f5b00870334000800200009f8270092
:1016800084033700e0ff2f00f1fe2300800f53009a
:10169000818f5b0006003c003fad9700cfad970007
:1016a000e00f5500e08f5d007f023d0059023700da
:1016b0000000200001ff2300800f5300818f5b009a
:1016c000060034003fa89700cfa89700e00f500015
:1016d000e08f58004f023c007302370002002000e8
:1016e00003f823000a00be00600507000005be00e5
:1016f000b2a32a0083fb23004a060700b0af9f0075
:10170000c1af9f0002062700532a23000a00be0033
:10171000440607000002be000a01be000a00be0027
:1017200094b79f00a5b79f003e0607000006be00c5
:101730000200200003e823000a00be00390607006b
:101740000001be00b0aa2a00a1ea23004705070055
:101750000001be000a00be00320607000001be0004
:101760000000200001f02300400507000001be003a
:101770000c00be002b060700b2a32a0083fb230047
:10178000280607000001be001fb29700afb2970005
:101790000400be00350507000006be000001be00c3
:1017a0003fa89700cfa8970039050700e10407007c
:1017b0000002be000203be006000b800f2ff2f006e
:1017c000f3ff2f00000062008180620002016300cd
:1017d00083816300fa0407000005be003fa997005b
:1017e000cfa99700210507000001be000c00be0034
:1017f000b40137006000b800f2ff2f00f3002000b2
:10180000820f5300838f5b000a003c00020020001f
:1018100003a025000a00be00020607000005be0066
:10182000c4040700d2a79f00e3a79f00b0fc2f00cd
:10183000f1ff2f000001be00f23fb1000380b100b4
:10184000efa2970044a8de0005037800cfb0de00c9
:101850000202400083824800b4a79f00c5a79f00f2
:1018600086027800ef8162005fa1970000002000ef
:1018700001ff23000002710081827100d4a79f0044
:10188000e5a79f006033b80096af9f00a7af9f0009
:10189000e088290031002000800f5100818f59001d
:1018a00014003400100020000100200090af9f00c1
:1018b000a1af9f0090672b00b1002000800f510066
:1018c000818f59000b0034003fa19700cfa19700f2
:1018d00061014100e0814900b2a79f00c3a79f00ba
:1018e000f0825200d4a79f00e5a79f0096af9f000b
:1018f000a7af9f005fa29700efa297004fabde005b
:10190000860378000403be006022b800b4af9f00d5
:10191000c5af9f00d6af9f00e7af9f000a00be0093
:1019200084040700f4ff2f00f5ff2f006033b80098
:101930000402600085826000060361008783610005
:101940003fa89700cfa897005fa99700efa997003d
:1019500004007000858070000601710087817100ad
:10196000f0979f00819f9f00929f9f00a39f9f00e1
:101970007f9097008f9897001f999700af999700d5
:101980008f0407000006be009fa89700420fdd00ed
:10199000c08020000e0040001001be00b2b79f00c2
:1019a000c3b79f000c00be00b004070090a79f00c3
:1019b000a1a79f003fb19700cfb197000c00be00d8
:1019c000b30407000001be000000200001f823005e
:1019d000c6fb0700b09f9f00c19f9f000001be0093
:1019e0001fa09700afa097008e050700b0af9f0023
:1019f000c1af9f004f0407000002be000203be00fb
:101a0000f4979f00859f9f00969f9f00a79f9f0030
:101a10006000b800f2ff2f00f3ff2f00000062000b
:101a2000818062000201630083816300d0b79f0060
:101a3000e1b79f00f2b79f0083bf9f005fb09700a0
:101a4000efb097007fb197008fb997005c04070053
:101a50000005be001fa99700afa99700c210dd00c6
:101a60000000200060014000e88148005fa297006c
:101a7000efa297008580d1000480d30001d0a000a0
:101a800002004000838048004f89de008201780018
:101a90000001be006000b800490407000002be005b
:101aa0000001be000a00be0094b79f00a5b79f00ca
:101ab0005c0507000001be001fa09700afa09700c3
:101ac0006a0407000003be003fb19700cfb1970042
:101ad0001fb29700afb297000400be00f6af9f00a0
:101ae00087b79f00610407000001be000c00be0024
:101af0005e0407000001be000a00be0049050700a1
:101b00000001be007fab97008fb397000600be00b8
:101b1000560407000001be003f989700cf98970039
:101b20004005070090af9f00a1af9f003fa997001d
:101b3000cfa997000200be003a0507000006be00cc
:101b40000001be00370507000002be0022142f006e
:101b500033e523000c00be0094b79f00a5b79f009b
:101b60003005070052252300c3e623004804070080
:101b70000001be000c00be002a05070052302a00fa
:101b8000b3e82300420407000001be000c00be00c1
:101b900024050700b2aa2a00a3ea23003c04070098
:101ba0000001be000c00be001e05070072db26000f
:101bb000b3ed2300360407000001be000c00be0098
:101bc00018050700a299290093f1230030040700ab
:101bd0000001be001fb29700afb297000400be0024
:101be000100507000006be003fa99700cfa9970087
:101bf0000a00be00260407000001be001fa89700cf
:101c0000afa89700070507000001be000c00be004a
:101c10001f040700d0a79f00e1a79f000a01be0094
:101c20000a00be00ff0407000006be0002002000fc
:101c300003042400160407005fa19700efa197009a
:101c400013040700bb0307000002be000203be002e
:101c50006000b800f2ff2f00f3ff2f0000006200c9
:101c6000818062000201630083816300f0979f001e
:101c7000819f9f00929f9f00a39f9f007f9097004e
:101c80008f9897001f999700af999700cc03070092
:101c90000002be000001be000a00be0094b79f0013
:101ca000a5b79f00df04070090a79f00a1a79f0092
:101cb0001fb29700afb297000401be001fa89700a3
:101cc000afa89700d70407000005be00020020005f
:101cd000030424001fb29700afb297000400be00b7
:101ce000e20307000c01be00e00307000001be0094
:101cf0005fa09700efa09700dc0307003fa99700c3
:101d0000cfa99700c70407000001be000a00be006b
:101d1000df0307000006be000001be001fa0970001
:101d2000afa09700da030700820307000002be009d
:101d30000203be006000b800f2ff2f00f3ff2f0087
:101d40000000620081806200020163008381630001
:101d5000b0af9f00c1af9f00d2af9f00e3af9f0025
:101d60003fa89700cfa897005fa99700efa9970019
:101d7000930307000005be00f284230063f72300ed
:101d8000a804070090af9f00a1af9f0012f02700aa
:101d9000131f2b000a00be00a20407000002be00b1
:101da0001fa19700afa197000a00be0094b79f0043
:101db000a5b79f00ad0307000001be000c00be00e8
:101dc000aa030700f284230063f7230095040700a9
:101dd0000001be001fb29700afb297000400be0022
:101de000ab030700428120000e0141001201be003a
:101df000a7030700d0a79f00e1a79f003fa097007f
:101e0000cfa097009ffa07000006be00c081200007
:101e10000e0740001e03be00b6af9f00c7af9f0075
:101e20005fa19700efa197001fa89700afa89700a8
:101e3000970307003fa99700cfa9970094030700d5
:101e40000c01be00920307003a0307000002be0027
:101e50000203be006000b800f2ff2f00f3ff2f0066
:101e600000006200818062000201630083816300e0
:101e7000f0979f00819f9f00929f9f00a39f9f00cc
:101e80007f9097008f9897001f999700af999700c0
:101e90004b0307000005be000c01be0073030700e2
:101ea0003fa99700cfa99700700307001fa99700cb
:101eb000afa997006d0307000001be005fa0970067
:101ec000efa09700690307000006be006000b8009d
:101ed000f2ff2f00f3ff2f005f9a9700ef9a970011
:101ee0007f9b97008fa397000000620081806200b3
:101ef0000201630083816300310307000003be0019
:101f00000001be000800be00f6af9f0087b79f002b
:101f1000560307000a01be00420407000002be008b
:101f20000c01be000800be0094b79f00a5b79f003b
:101f30003c0407000001be001fb29700afb297003b
:101f40000400be00520307000004be000a01be00e8
:101f50007fab97008fb397000600be0031040700e7
:101f60000005be0090af9f00a1af9f000001be0022
:101f70000800be00460307000006be00ed02070091
:101f80000203be000002be00f0ff2f00f108240093
:101f9000800f5100818f590026003400000020007e
:101fa00001f72b000200400083804800040070000d
:101fb00085807000e00f5000e08f580015003a0057
:101fc000b2a32a00834b22000800be00f6af9f0098
:101fd00087b79f002e0307000002be000a01be0063
:101fe0000c00be0094b79f00a5b79f001f03070019
:101ff0000001be001fb29700afb297000400be0000
:10200000ed0207007fab97008fb397000000e00060
:102010002b0034000200200003f827007fa0970067
:102020008fa89700ff0307000200200003f8270095
:102030000d0137008701780003f0a1000601780048
:10204000f0bf2c0001092400800f5100818f59003e
:102050001b00340000402300f1f62300060040007e
:10206000878048000400700085807000e00f5000f9
:10207000e08f58000c003a000a01be000c00be00c0
:10208000f6af9f0087b79f00f80207000001be006f
:102090000800be00c60207007fab97008fb3970011
:1020a0000000e00006003c006011b8007fa097002f
:1020b0008fa89700db0307006011b800ea00370023
:1020c0008701780003f0a100060178006000b800e5
:1020d000b0af9f00c1af9f000000200001fe2300b1
:1020e000800f5100818f5900490034004498de0070
:1020f000e03fb10004002000050120000000e900dd
:10210000030033008582d1000482d300fbff370037
:102110000402430085824b000506780085007800a4
:1021200001f0a1004489de00cf89de000200be007c
:10213000f03fb1000180b10090af9f00a1af9f00c0
:10214000f2ff2f00f30020009fa897008100e90014
:10215000030033008381d1000281d300fbff3700ed
:102160000281ea008381ea0083806200040061004a
:102170004f89de00820178000001be006000b800d7
:1021800094b79f00a5b79f00f6af9f0087b79f0049
:102190008b0207000001be00ef0066001fb0970031
:1021a0000002be000540a000b4af9f00c5af9f0075
:1021b0009faa9700748012003faa9700cfaa9700a9
:1021c0000000e900030033008582d1000482d300bf
:1021d000fbff3700b4af9f00c5af9f007fab9700f8
:1021e0008fb39700e00f5300e08f5b0004003d00c9
:1021f00060021200e0821a00b4af9f00c5af9f00da
:102200000a00be009902070090af9f00a1af9f0097
:102210001fa99700afa997000800be009c02070005
:10222000440207006022b800f6ff2f00f7ff2f00de
:1022300004026000858260000603610087836100fc
:102240000400be000601be005d0207000006be00dd
:102250008221270013f32300720307000005be004c
:102260001fa99700afa997000c00be007f020700ce
:102270000001be000800be007c020700822127008a
:1022800013f32300670307000004be0082302e0012
:1022900023102b000c00be00620307000001be00eb
:1022a0000800be007a0207000006be000001be0062
:1022b0000a00be00760207000004be000a01be004c
:1022c0006a0207000001be000c00be0067020700a2
:1022d00090af9f00a1af9f000801be000800be00a4
:1022e000500307000005be00c2b42b0013332300c7
:1022f0004c030700e2a02e00d35d23005b02070021
:102300000001be000a00be004603070052352b0044
:10231000a38823005e0207000001be000a00be0081
:102320004003070012b6200063b323004f020700ea
:102330000001be000a00be003a030700b2aa2a004c
:10234000a3e22300520207000001be000a00be0003
:10235000340307000001be000800be00430207006e
:102360000005be000001be000800be002d030700ee
:102370000006be0002002000030024000a00be0088
:102380003a0207000001be000c00be0057f907002a
:102390000005be001fa99700afa997000800be0066
:1023a000200307000001be001fa89700afa89700f8
:1023b000370207000001be000a00be002b02070022
:1023c0000801be00290207000001be000000200035
:1023d00001f82300250207000004be00d501070014
:1023e0003fab9700cfab9700c432dd000400200064
:1023f000040241008582490044abde00cfabde0021
:10240000e00f5300e08f5b0004003c003fa9970001
:102410000800be0032000700100037004fabde009e
:10242000860378000403be006022b800f8ff2f0086
:10243000f9ff2f006055b80008046000898460002f
:102440000a0561008b8561000800720089807200b6
:102450000a0173008b817300d90107000001be00df
:102460007fa097008fa89700ee0207000004be002f
:10247000080037000800200009f823000500370095
:102480006044b800030037000c04be0001003700b0
:102490000204be000800be004f0778004f06be00d1
:1024a0004f05be004f04be006f04b10000000600df
:1024b0006022b8006033b8000002be00f0ff2f00b9
:1024c000f1ff2f00f2ff2f00f3ff27000000620052
:1024d00081806200020163008381630000000600c6
:1024e000889fbe008a9fbe0002047800f93f20004a
:1024f000890f54000d0034000200200003f827006b
:10250000c8020700f83fb100890f540015003400dd
:102510000200200003f82700c2020700f83fb100c4
:10252000890f54000e003c000e00370029c02f0018
:10253000890f54000b003d006011b800b90207007c
:10254000983cb000890f540006003d006011b800af
:10255000b4020700983cb000890f540001003d0010
:1025600009047800f83fb000cfc4de00614db90027
:102570006044b8000801be00aa0207004f05be0073
:102580004f04be00000006002800fa00889fbe002d
:102590008a9fbe008c9fbe000004be00650107003c
:1025a0000203be000002be00c0b79f00d1b79f006b
:1025b000e2b79f00f3b79f000602be0006002000ae
:1025c00007ff27008786620006067800860f560000
:1025d000878f5e0007003a000801be000800be00b9
:1025e000900207000001be000800be00a80107001d
:1025f000310137004fb39700dfb39700e00f52006f
:10260000e08f5a0013003c008501780003f0a10020
:10261000040178000601710087817100e00f51000c
:10262000e08f590025013200e00f5200e08f5a0080
:102630000800320010022000204188000801be007e
:102640000800be00890107000001be00a7f80700ce
:102650001901370044a8de00cfa8de00e00f5000cb
:10266000e08f58002e003a00080037007500500037
:10267000e0805800453cdd004b32de00040274006f
:10268000cb3ade00c533dd0006002000e00f52002b
:10269000e08f5a00f5ff32006011b80004003700e7
:1026a0000402420085824a0061014100e081490044
:1026b00008002000090120008585640008057800d5
:1026c000e00f5500e08f5d00f5ff32006100400033
:1026d000e08048000200500083805800080220007b
:1026e000020454000605be00080678000c06e90046
:1026f000030033008b05d1000a85d300fbff3700b0
:102700000402750085827500820678008d06e90056
:10271000030033000603430087834b00fbff3700b1
:10272000f03fb1000180b100ef8162000401780048
:102730000340a0000008a3000c0032000201410089
:102740008381490008002000090028008782640076
:10275000080278004f2ade00050020000201420036
:1027600083814a000603430087834b008182d100a6
:102770000082d30084af9f0095af9f00020141000b
:102780008381490008002000090028008780640038
:10279000080078004f08de00010020000201400020
:1027a000838148000600430087804b006c012000b5
:1027b00006002000070220006044b8006022b80034
:1027c00088bf9f0099bf9f00eca79f0004054300ae
:1027d00085854b00820f5500838f5d000a003c0009
:1027e0000a0243008b824b000a0151008b81590081
:1027f0000fbe97009fbe97000c0643008d864b00ce
:102800008cbf9f009dbf9f0002044100838449004c
:10281000c8b79f00d9b79f000a0020000b0028000e
:1028200081846500b9b79f00aab79f002fb19700b8
:10283000bfb197004f19de0003002000e2af9f00f8
:10284000f3af9f004fb49700dfb497000801410039
:102850008981490000004000818048008703d10041
:102860000683d300efa697008d06e900eda79f0031
:10287000d6ff3a000fbc97009fbc97006033b800aa
:10288000a6b79f00b7b79f00cab79f00dbb79f00ee
:102890000c022000e8a79f00f9a79f00e6af9f0069
:1028a000f7af9f004fb59700dfb597002fb39700a4
:1028b000bfb397000a0443008b844b00820f520081
:1028c000838f5a000400350034003a00800f540012
:1028d000818f5c0030003e004fb59700dfb5970058
:1028e0000805450089854d00aab79f00bbb79f002a
:1028f0000a0020000b0028000983650096b79f009e
:102900008ab79f000fb397009fb397008a0f5300b9
:102910008b8f5b000c003a00bfb397008783650084
:10292000d7af9f00c6af9f004fad9700dfad9700b8
:10293000e00f5500e08f5d0003003a0061034200a4
:10294000e0834a00010037000403be000401510087
:1029500085815900880f5000898f5800020031008e
:1029600061015100e0815900080050008980580041
:102970006faa9700ffaa97004fb49700dfb49700a3
:102980000402440085824c00e4af9f00f5af9f0035
:102990000602be00010037000401be000201410032
:1029a000838149000600200007002800818463001d
:1029b000b9af9f0006057800aaaf9f002fac970023
:1029c000bfac97004f4bde00070020000201430020
:1029d00083814b0000004000818048004fb5970084
:1029e000dfb597008b05d1000a85d300cab79f00d9
:1029f000dbb79f000c06e900aaff3a006fa497001e
:102a0000ffa497006fab9700ffab97000001710028
:102a100081817100e00f5100e08f59000b003200fe
:102a2000e10f4300e08f4b0004003a0061044400d2
:102a3000e0844c006033b800040037006000b80048
:102a4000610063000003430081834b008985d1004e
:102a50000885d3008701d1000681d3000808a300b0
:102a60000100320003f0a0000fae97009fae970068
:102a7000c460dd00000020000400200005fe2300eb
:102a80000000420081804a000002450081824d0022
:102a90004fabde00860378000403be006022b8005e
:102aa00004027100858271000603be000400be00ae
:102ab0000601be00420007000004be000800be0080
:102ac0004f06be004f05be004f04be000080fa0056
:102ad0000000060080007800040037003104e000a8
:102ae00002003a00000051000000060001017800d9
:102af0000108a300f9ff3a00810178003101780054
:102b0000f4ef2f00020242000281ea00020162009b
:102b10000408280004016100f7ff320083007800f8
:102b2000010178003104e000fdff3a00000051008f
:102b3000000006008103780057f707000001be007f
:102b40006000b8000478a30013003a006220e1009e
:102b500015003e000d0039008301d1000281d30031
:102b60008180d3008301d1000281d3008180d30012
:102b70008301d1000281d3008180d3000538b000e9
:102b8000c42add00f300b2008381720007f0a700c1
:102b900003f0a0000000060083ff270002002000d1
:102ba0006110b900f9ff370003ff2700f7ff370076
:102bb0001400200043023700f4ff2f0041023700c9
:102bc0001400fa00889fbe008a9fbe008c9fbe0042
:102bd0000005be000206be00680047000c90be0063
:102be0000a90be00f70107006400e1001a003200fd
:102bf00016003e006100e1001a0032006e049000f1
:102c0000fe0490000e0b90009e0b90006011b80027
:102c10009e0590000b38b100d50120008281710023
:102c2000610164008703d1000683d3008984d30047
:102c30000884d3008502e900f8ff3a00e9f80700ac
:102c40000df0a70001f0a0001902370001fc2700d9
:102c500000002000faff370001f8270000002000e4
:102c6000f7ff37006000b800f5ff370007f82700ce
:102c7000078361000638e10004003a00f7072000ee
:102c8000878361008703710001003a0003f0a2000e
:102c9000889fbe008a9fbe008c9fbe00470ade0050
:102ca0000480a100c71ade000580a10007002800eb
:102cb0000785600087856100f70f20000720e1008d
:102cc0009e0032000728e1009c00320001067800d7
:102cd0000400e000b4003200f707200087806000a5
:102ce0000170a0000500e000c0003200f7072000de
:102cf000878161000370a000050652000f003a00b2
:102d00000b50e1000b0032000308e10002003a0022
:102d10000200e1007e00320002045000838458006b
:102d2000040031000001fd008101fd008402fd006e
:102d30008a05fd006044b800210037000520e1004d
:102d400005003d000001fd008101fd008402fd0041
:102d50008a05fd00050652007a60e1000500350095
:102d60000170a1004722dd00848070008a8070001d
:102d7000630037006044b800ef02660007ff2f00d1
:102d8000070666000500e00006003400f08312002c
:102d90008714dd000511de00071bdd000601710050
:102da0008519de007060e100050035000904780037
:102db00082047800030178008001eb007006560061
:102dc0000b50e10003003a000200400083804800fd
:102dd0000400370060041400e0841c000200580066
:102de000838058000188a300060032008100d100d2
:102df0000080d3008984d3000884d3000402e80053
:102e0000270037000178a30025003a000100e00008
:102e1000030032008186cf00698656000a00370021
:102e20008c0020000000e00004003a000900780057
:102e3000880478000004eb00700252008086cf0006
:102e40000d0646000c06e9007060e1000600350042
:102e50008000780009007800880478000004eb0006
:102e600070065600700252000c00e0000c003400a6
:102e70008c08dd00f00316000703de00868070007a
:102e80000c00dd00074bde00060070008c4cdd00fe
:102e90000743de00868474000c44dd000c025200ff
:102ea0006120e1002000350061016000070028007a
:102eb00087816400f7ff270087836400070374009d
:102ec0000300e000060032008203730004003200b9
:102ed0000000e800e08048000188a3000e003a00ee
:102ee000f70f20000720e1004a003d000170a1001b
:102ef0004722dd00810072008a8070000000be0061
:102f00004f06be004f05be004f04be000000060085
:102f10006000b800faff37008100d1000080d300c4
:102f20000402e800eeff3700040178008901740014
:102f3000c20007008a807000f1ff37004af70700df
:102f4000070278000001fd008101fd0046f707003f
:102f500087027800850372000778a300040032001e
:102f60000001fd008101fd000d010700e4ff3700b5
:102f7000850362000768a300080032000b50e100df
:102f800003003200f0ff2f00f1ff2700dcff3700c5
:102f90000001fd008101fd00d9ff37000468a30096
:102fa000d7ff3200faff3700f8ff27008883600060
:102fb0000b003a000000e00009003a0083036400bf
:102fc00082837300020032000200be00ccff370093
:102fd0000b50e100ceff3a000200be00c8ff3700f0
:102fe00014002000810064003eff3700f8ff270036
:102ff0008883610004003a000200e00002003a0009
:103000008c007800beff37001500200083016400ab
:1030100039ff370001f8270000002000810075000b
:10302000b7ff370003836800070028000703630029
:10303000470ade000480a100c71ade000580a10057
:10304000f70f20000720e100420032000728e100ce
:1030500040003200889fbe008a9fbe008c1f78000f
:10306000f107b200f307b2000400e0006400320090
:103070000170a0000500e000680032000370a000ad
:1030800085054200eb07b1000204b8000302b80056
:103090008484440060854a00020ab80084844400a5
:1030a0000a854a00030ab8000405450004003300fd
:1030b0000804d0008984d2000a85d2008b05e9007b
:1030c0006158e1003d003500021020000901610057
:1030d0000308200089816100f707200087836400ce
:1030e00008867300c84cde00c853dd008784740076
:1030f0004855de000300e00006003200820376003f
:10310000040032008904e80060054d000a88a3002d
:103110000c003a00f70f20000758e10044003d0082
:103120000a70a100c75ddd000a8575008a00730082
:10313000090078004f0678004f05be004f04be001e
:10314000000006000a05d1008984d3008b05e80041
:10315000f0ff3700881f780006047800c2f60700e9
:10316000070278000001fd008101fd00bef60700a6
:1031700087027800850372000778a30005003200fb
:103180000001fd008101fd00850007004f0478006b
:1031900000000600850372000748a3000300320008
:1031a000f0ff2f00f1ff2700f8ff3700000020009c
:1031b00001f8270088807000f4ff3700880178004c
:1031c0004848dd00808171004848de00c850dd00bd
:1031d00001007000c850de00060478000b01780082
:1031e0001600070088807000d2ff37000500e0005d
:1031f00005003200170020003a0007009dff37004d
:1032000081037000f9ff3a00860078004f067800cd
:103210004f05be004f04be0000000500830371008f
:10322000f9ff3200270020002e00070094ff37002e
:1032300001f8270086807000f4ff37000100e000ed
:1032400026003200610111007810e10023003c00eb
:103250006022b8007010e1000400350080027800a0
:10326000010078008000eb00700151000200e000d6
:103270000900340070031100062add00822ade00f6
:103280008603dd00878272000200de00860bdd000f
:10329000070070008208de0084817100f4ff2700bf
:1032a000048262008481710004002800848262002c
:1032b0006102600005f0a6000000060004827100b3
:1032c000070032000000e800e0804800000006002f
:1032d0000002be006000b800efff37006000b800d9
:1032e00000000600889fbe000004eb006138e1008a
:1032f00016003a000100e00008003a00c800de00b5
:103300004800dd00880020000100e00003003a00d2
:10331000c800de004800dd00680444008184cf005e
:10332000e9845400060034008908dd00f0831400ad
:103330008703de00878070000900dd000904440077
:10334000610214004f04be00000006000300e0000c
:1033500008003a00c811de004811dd008800200096
:103360000300e00003003a00c811de004811dd0050
:10337000680444008384cf00e984540006003400cc
:103380008919dd00f08314008713de008781710046
:103390000911dd0009044400e1021400e9ff3700cf
:1033a0000478a300040032000578a3000300320073
:1033b0000168a30001003a000200be000160a00005
:1033c00000000600800078005002be005003be00de
:1033d0004439de00f700b200f37f200003016100f2
:1033e000090032000218e10016003a00850172005f
:1033f00083017300838173000008200015003a00e8
:103400004000200013003700850172008301730023
:103410008381730005003a0004a8be0006a8be0020
:10342000100020000b0037000201e90004024200f6
:1034300085824a0006034b0087834b000748a300a0
:10344000f9ff32000740a00004a8be0006a8be0095
:1034500020002000800098009200980000000600e4
:10346000680447000294be000094be00fc044700bc
:103470008694be008494be0009007800d1ff070046
:1034800008007800cfff070099007800814f700096
:103490000b003b000800be002d0007004f00b100ec
:1034a00003003700f3ff2700f2ff2f006110b9007f
:1034b0004f06be004f05be004f04be000080fa005c
:1034c00000000600889fbe008a9fbe00841f78000f
:1034d000170007004f00780011003300f0ff2f00a5
:1034e000838f6c0006003b00040565000a00a700fe
:1034f0000800370009f0a60010002000080037007f
:10350000820f5400838f5c000300390010002000fc
:1035100001003e000000200009f0a7000000ea00c2
:103520004f05be004f04be000000e0000000060092
:103530000004be00d8f407000003be000405be006e
:103540000200be00d4f40700844f7500000006009e
:10355000e48240001078a3000700320064024000bb
:103560001178a3003400be001401be000400320034
:103570000330a700000006003500be001501be00a4
:083580000330a000000006006a
:020000040000fa
:103588006d2000003a2000000073000000300000a9
:10359800306d0000203a0000203000003073000039
:1035a8000d0000006d3a0000200000000d30000002
:1035b800303a000030300000202d00002d2000009f
:1035c800414c0000415200004d0d00000053000026
:1035d800746100007274000020740000696d0000be
:1035e8006572000000530000746f00007020000036
:0c35f800746900006d65000072000000a6
:020000040000fa
:103604000000fa00c802a900c822a800cc02a80041
:103614008000200080118800113a800000002700fb
:103624008080600000002600808f500003003a0074
:10363400c0002000c011880010003700113a80003b
:10364400000027008080600000002500808f50006b
:1036540003003a00c0002000c011880007003700b2
:10366400113a800000002700008060000000e000a4
:1036740002003a0070062000c011880000002a00f1
:103684009011880087e0a90091058000f0ff2800d0
:103694008080600000002300010070009005880015
:1036a40097e0a80087c0a90091058000f08f2f0043
:1036b4000080600000a0a0009005880097c0a800ca
:1036c40031e2a8003342a8000080fa00000006009e
:1036d4000400fa00004f78000e80e800010878002a
:1036e400c7ff07000f0037000140fe00010037004c
:1036f4000000000091118000002020000080600084
:103704000000e000f8ff3a001e00fb00a011880052
:103714000e80e800100078008000e9000e80e800c8
:10372400010878000e80e800100078000000e00036
:10373400efff3a000000000091118000001020000b
:10374400008060000000e000fbff320031e2a900cd
:103754000080fa00000006000400fa008e80e800f1
:10376400800878008040eb000e00e80001487800f3
:103774001100200000c2b300d5ff07001100200093
:1037840000c3b300d2ff07001100200080c7b300bc
:10379400cfff070030c0b300004f78001f00370090
:1037a4001e00fb004200dd008e80e80091007800de
:1037b4000008de0000407800ef4060000e00e800e2
:1037c400014878000e00e80010407800e94f5000ee
:1037d400070034000e00e8001040780072c3b30004
:1037e400824040000e00e8000148780006003700df
:1037f4000e00e8001040780002c3b300824040008d
:103804000e00e80001487800110020000e00e800d6
:1038140010407800aeff07001e4fe9001e407800fc
:103824000004e000deff3d001100200000c2b300f0
:10383400a7ff07008000eb000e80e8000108780075
:103844000080fa00000006000600fa000e81e8007d
:103854000089be008040eb000e00e80001487800bb
:103864001100200000c2b30099ff070011002000de
:1038740000c3b30096ff07001100200080c7b30007
:1038840093ff070070c0b300004f78002400370096
:103894001e00fb004201dd000e80e8001000be00a7
:1038a400820178008301e900030033008100d10024
:1038b4000080d300fbff370000407800ef40600039
:1038c4000e00e800014878000e00e800104078007f
:1038d400e94f5000070034000e00e8001040780063
:1038e40072c3b300824040000e00e8000148780033
:1038f400060037000e00e8001040780003c3b30050
:10390400834040000e00e8000148780011002000c8
:103914000e00e800104078006dff07001e4fe9001c
:103924001e4078000004e000d9ff3d001100200093
:1039340000c2b30066ff07006000b8000e81e80013
:103944000089be000080fa00000006000800fa00aa
:10395400889fbe00e60047008008780030c0b300ae
:10396400004f7800230037006600470010007800fd
:103974008000eb00c5f307000004be001e80fb00be
:1039840064001000cf80de00bdf307000001be001c
:103994000000200001122400b7f507000001be005a
:1039a4000800be00d0f307009af307000e81e80078
:1039b400000978000e80e80010017800d0cc2c00bb
:1039c4000010b8004308de006a00b9000000780067
:1039d40000005100e400470080487800640047007c
:1039e400104078000043b0001100200038ff0700a9
:1039f4001e4fe8001e407800e44f5000daff360006
:103a04004f04be000080fa00000006000400fa0023
:103a14008e80e800800878000000eb00000f78003a
:103a2400070037000e80e800100078001e004000f8
:103a3400104078001100200025ff07001e0fe80049
:103a44000e80e8001000780021fc07009e0f500053
:103a5400f4ff31000080fa00000006000000fa00c4
:103a6400c902a900cd02a900c082a8006800a8006c
:103a74006000a800c882a8006820a8006020a800f0
:103a8400c042a8006bc0a80063c0a8008660a9005b
:103a940061058000f0ff280080806000000026009f
:103aa40001007000600588009660a8000080fa009c
:103ab400000006000000fa000900370000000000c2
:103ac4000700370000000000050037000000000078
:103ad4000300370000000000010037000000000070
:103ae40000c8bf000004e00003003a00cd02a900b2
:103af4000140fe00faff370000c8bf00e14f50004c
:103b04001e003a0001c8bf000040e80001e8b70009
:103b14001180200091407800b0c3b30080cf5000e2
:103b240003003600b0c3b30001e8b7000068ef003b
:103b340001c8bf000080fb0084ff070040ac2900df
:103b4400b2ff070002c8bf000080fb007fff070030
:103b540090ac2900adff070011002000d0c0b300d5
:103b6400dbfe070010168000640060000000e00027
:103b7400d2ff32000068ef00d9ff370000c8bf0051
:103b8400e24f50001e003a0002c8bf000040e800a7
:103b940002e8b7002180200091407800b0c3b30050
:103ba40080cf500003003600b0c3b30002e8b70072
:103bb4000068ef0001c8bf000080fb0063ff07003e
:103bc40040ac290091ff070002c8bf000080fb0041
:103bd4005eff070090ac29008cff07001100200055
:103be400d0c0b300bafe0700501680007000600019
:103bf4000000e000b3ff32000068ef00b8ff3700b8
:103c040000c8bf00e44f500007003a00b0ac2900e0
:103c14007eff07000268ef000168ef000368ef0011
:103c24000068ef00aeff370000c8bf00e34f50004c
:103c3400a6ff3a0003c8bf00e14f5000a5ff3a00b9
:103c4400cd02a80002c8bf000040e90002e8b700a6
:103c5400cd02a800803e2000a2000700cd02a900ea
:103c6400803e20009f00070005c8bf000004e0005c
:103c740010003a0011002000d0c0b30094fe0700e9
:103c840001c8bf000080fb0030ff070060ad2900c1
:103c94005eff070002c8bf000080fb002bff070087
:103ca40090ac290059ff070011002000d0c0b300d8
:103cb40087fe070001c8bf000004e00008003200ce
:103cc40002c8bf000004e00005003a00c0c3b3000e
:103cd40002e8b70001c8bf000040e90001e8b700ee
:103ce40001c8bf000004e0000e003a0002c8bf0093
:103cf400e14f50000b003a0010c0b30004e8b700d5
:103d0400a0ad290041ff07000368ef000068ef0041
:103d140001003700cd02a80004c8bf00e14f5000e5
:103d2400fcff320003c8bf000004e0006bff3a0050
:103d34000068ef006aff37000400fa008e80e80094
:103d4400800878000e80e80010007800e80f50002a
:103d540003003a000040eb00004f780012003700e7
:103d64000e80e80090007800401f2000808f5000f3
:103d740003003a0060c6b300004f78000a00370021
:103d84000e80e8009000780000022000808f500030
:103d940003003a0050c5b300004f7800020037001a
:103da40050c5b300004f780011028000000e2000bf
:103db4000100700010028800213a8000f08f2f006b
:103dc40000806000203a88001e01fb00800720006c
:103dd400a1092000337420008049780081497800cb
:103de4008249780012002000600420007105200040
:103df4002374200080497800814978008249780042
:103e04004207a80000000000103a80006100600032
:103e14000000e000fcff3a0011028000f0f12f00e6
:103e240000806000100288000080fa000000060094
:020000040000fa
:103e34000608000002000000000000000008000066
:103e44000600000000000000080800000200000056
:103e5400000000000a08000002000000000000004a
:103e64000c080000180000000200000000008000a0
:103e74003f000000c03f0000000000005aef670050
:103e84003200000000001a00c0153f0024080000a2
:0c3e940002000000000000000000000020
:020000040000fa
:103ea0000000fa00c9e2a9004fe7a8004fa7a90047
:103eb0004f87a900713a8000f00f2f00008060004a
:103ec000703a88000080eb00601988000002200032
:103ed0009aff0700e2fe0700cafd0700f6fe070092
:103ee0000140fe00fdff37000200fa00000f7800dd
:103ef00011e1a800a780a800a7a0a800a7c0a8005b
:103f000094e0a80084e0a9001e0078004400dd00d1
:103f1000600888000140fe000080fa0000000600f2
:020000040000fa
:0200000401f009
:04000000ffffff00ff
:020000040000fa
:0200000401f009
:04000800ffffff00f7
:020000040000fa
:0200000401f009
:04000c0000000000f0
:020000040000fa
:0200000401f009
:040010005300000099
:020000040000fa
:0200000401f009
:0400140040000000a8
:020000040000fa
:0200000401f009
:0400180010000000d4
:020000040000fa
:0200000401f009
:04001c00c20000001e
:020000040000fa
:0200000401f009
:0400200017000000c5
:00000001FF
