:020000040000fa
:080000000002040000000000f2
:020000040000fa
:04000800e40200000e
:020000040000fa
:04000c00e40200000a
:020000040000fa
:04001000e402000006
:020000040000fa
:04001400e402000002
:020000040000fa
:04001800e4020000fe
:020000040000fa
:04001c00e4020000fa
:020000040000fa
:04002000e4020000f6
:020000040000fa
:04002400e4020000f2
:020000040000fa
:04002800e4020000ee
:020000040000fa
:04002c00e4020000ea
:020000040000fa
:04003000e4020000e6
:020000040000fa
:04003400e4020000e2
:020000040000fa
:04003800e4020000de
:020000040000fa
:04003c00e4020000da
:020000040000fa
:04004000e4020000d6
:020000040000fa
:04004400da020000dc
:020000040000fa
:04004800e4020000ce
:020000040000fa
:04004c00e4020000ca
:020000040000fa
:04005000e4020000c6
:020000040000fa
:04005400e4020000c2
:020000040000fa
:04005800e4020000be
:020000040000fa
:04005c00e4020000ba
:020000040000fa
:04006000e4020000b6
:020000040000fa
:04006400e4020000b2
:020000040000fa
:04006800e4020000ae
:020000040000fa
:04006c00e4020000aa
:020000040000fa
:04007000e4020000a6
:020000040000fa
:04007400c8020000be
:020000040000fa
:04007800e40200009e
:020000040000fa
:04007c00e40200009a
:020000040000fa
:04008000e402000096
:020000040000fa
:04008400e402000092
:020000040000fa
:04008800e40200008e
:020000040000fa
:04008c00e40200008a
:020000040000fa
:04009000e402000086
:020000040000fa
:04009400e402000082
:020000040000fa
:04009800e40200007e
:020000040000fa
:04009c00e40200007a
:020000040000fa
:0400a000e402000076
:020000040000fa
:0400a400e402000072
:020000040000fa
:0400a800e40200006e
:020000040000fa
:0400ac00e40200006a
:020000040000fa
:0400b000e402000066
:020000040000fa
:0400b400e402000062
:020000040000fa
:0400b800e40200005e
:020000040000fa
:0400bc00e40200005a
:020000040000fa
:0400c000e402000056
:020000040000fa
:0400c400e402000052
:020000040000fa
:0400c800e40200004e
:020000040000fa
:0400cc00e40200004a
:020000040000fa
:0400d000e402000046
:020000040000fa
:0400d400e402000042
:020000040000fa
:0400d800e40200003e
:020000040000fa
:0400dc00e40200003a
:020000040000fa
:0400e000e402000036
:020000040000fa
:0400e400e402000032
:020000040000fa
:0400e800e40200002e
:020000040000fa
:0400ec00e40200002a
:020000040000fa
:0400f000e402000026
:020000040000fa
:0400f400e402000022
:020000040000fa
:0400f800e40200001e
:020000040000fa
:0400fc00e40200001a
:020000040000fa
:04010000e402000015
:020000040000fa
:04010400e402000011
:020000040000fa
:04010800e40200000d
:020000040000fa
:04010c00e402000009
:020000040000fa
:04011000e402000005
:020000040000fa
:04011400e402000001
:020000040000fa
:04011800e4020000fd
:020000040000fa
:04011c00e4020000f9
:020000040000fa
:04012000e4020000f5
:020000040000fa
:04012400e4020000f1
:020000040000fa
:04012800e4020000ed
:020000040000fa
:04012c00e4020000e9
:020000040000fa
:04013000e4020000e5
:020000040000fa
:04013400e4020000e1
:020000040000fa
:04013800e4020000dd
:020000040000fa
:04013c00e4020000d9
:020000040000fa
:04014000e4020000d5
:020000040000fa
:04014400e4020000d1
:020000040000fa
:04014800e4020000cd
:020000040000fa
:04014c00e4020000c9
:020000040000fa
:04015000e4020000c5
:020000040000fa
:04015400e4020000c1
:020000040000fa
:04015800e4020000bd
:020000040000fa
:04015c00e4020000b9
:020000040000fa
:04020800e40200000c
:020000040000fa
:04020c00e402000008
:020000040000fa
:04021000e402000004
:020000040000fa
:04021400e402000000
:020000040000fa
:04021800e4020000fc
:020000040000fa
:04021c00e4020000f8
:020000040000fa
:04022000e4020000f4
:020000040000fa
:04022400e4020000f0
:020000040000fa
:04022800e4020000ec
:020000040000fa
:04022c00e4020000e8
:020000040000fa
:04023000e4020000e4
:020000040000fa
:04023400e4020000e0
:020000040000fa
:04023800e4020000dc
:020000040000fa
:04023c00e4020000d8
:020000040000fa
:04024000e4020000d4
:020000040000fa
:04024400da020000da
:020000040000fa
:04024800e4020000cc
:020000040000fa
:04024c00e4020000c8
:020000040000fa
:04025000e4020000c4
:020000040000fa
:04025400e4020000c0
:020000040000fa
:04025800e4020000bc
:020000040000fa
:04025c00e4020000b8
:020000040000fa
:04026000e4020000b4
:020000040000fa
:04026400e4020000b0
:020000040000fa
:04026800e4020000ac
:020000040000fa
:04026c00e4020000a8
:020000040000fa
:04027000e4020000a4
:020000040000fa
:04027400c8020000bc
:020000040000fa
:04027800e40200009c
:020000040000fa
:04027c00e402000098
:020000040000fa
:04028000e402000094
:020000040000fa
:04028400e402000090
:020000040000fa
:04028800e40200008c
:020000040000fa
:04028c00e402000088
:020000040000fa
:04029000e402000084
:020000040000fa
:04029400e402000080
:020000040000fa
:04029800e40200007c
:020000040000fa
:04029c00e402000078
:020000040000fa
:0402a000e402000074
:020000040000fa
:0402a400e402000070
:020000040000fa
:0402a800e40200006c
:020000040000fa
:0402ac00e402000068
:020000040000fa
:0402b000e402000064
:020000040000fa
:0402b400e402000060
:020000040000fa
:0402b800e40200005c
:020000040000fa
:0402bc00e402000058
:020000040000fa
:0402c000e402000054
:020000040000fa
:0402c400e402000050
:020000040000fa
:0402c800e40200004c
:020000040000fa
:0402cc00e402000048
:020000040000fa
:0402d000e402000044
:020000040000fa
:0402d400e402000040
:020000040000fa
:0402d800e40200003c
:020000040000fa
:0402dc00e402000038
:020000040000fa
:0402e000e402000034
:020000040000fa
:0402e400e402000030
:020000040000fa
:0402e800e40200002c
:020000040000fa
:0402ec00e402000028
:020000040000fa
:0402f000e402000024
:020000040000fa
:0402f400e402000020
:020000040000fa
:0402f800e40200001c
:020000040000fa
:0402fc00e402000018
:020000040000fa
:04030000e402000013
:020000040000fa
:04030400e40200000f
:020000040000fa
:04030800e40200000b
:020000040000fa
:04030c00e402000007
:020000040000fa
:04031000e402000003
:020000040000fa
:04031400e4020000ff
:020000040000fa
:04031800e4020000fb
:020000040000fa
:04031c00e4020000f7
:020000040000fa
:04032000e4020000f3
:020000040000fa
:04032400e4020000ef
:020000040000fa
:04032800e4020000eb
:020000040000fa
:04032c00e4020000e7
:020000040000fa
:04033000e4020000e3
:020000040000fa
:04033400e4020000df
:020000040000fa
:04033800e4020000db
:020000040000fa
:04033c00e4020000d7
:020000040000fa
:04034000e4020000d3
:020000040000fa
:04034400e4020000cf
:020000040000fa
:04034800e4020000cb
:020000040000fa
:04034c00e4020000c7
:020000040000fa
:04035000e4020000c3
:020000040000fa
:04035400e4020000bf
:020000040000fa
:04035800e4020000bb
:020000040000fa
:04035c00e4020000b7
:020000040000fa
:100400002f8020000edf20000e0188000000000079
:10041000000020000000e000020032000001200087
:100420002002880014000700690007000000e000b7
:1004300003003a0080452000010020000200370040
:100440000000200001002000810f70000100320038
:1004500014000700000020000000e000020032004d
:100460000000020000000000100402000000000074
:100470000040da000000fe004440a9000000200017
:100480000000e0000300320000002000a00188000e
:100490004440a800000006008a1f78008b1f7800e7
:1004a0000000060091018800800478000000eb0045
:1004b0001a003700e284440032a0b4009905ba0063
:1004c000e284440032a0b4009906ba00e2844400f9
:1004d00032a0b4000006eb00476fde00fd07b2005b
:1004e000636ce10003003a00ebff07000000eb0043
:1004f0000a003700606ce10004003a00005deb0088
:100500008b05e900fdff3e00040037006168e10053
:10051000010032000086eb000b00070019c7ba008b
:100520001905ba000e04e00003003a000a00e000da
:10053000e0ff3a0000000600fe07b2009e018800be
:100540008a047800f5ff3700395dba008b05e900b1
:100550000c003200295dba008b05e900080032006a
:100560000c00e00003003a00e284440032a0b40032
:10057000f5ff370019ddba008b05e900faff3a00f4
:100580008904e800e184440032a0b40000000600c1
:10059000801f78000000fa0010c0b30000e8b70028
:1005a0008660a900000000000080fa004f0078007b
:1005b000004006000000fa0084e0a90011e1a90053
:1005c0000080fa00004006000040da000000fe0053
:0405d0000000050022
:020000040000fa
:1005d4000000fa00c902a900cd02a900c082a80047
:1005e4006800a8006000a800c882a8006820a800cd
:1005f4006020a800c042a8006bc0a80063c0a80087
:100604008660a90061058000f0ff280080806000fa
:100614000000260001007000600588009660a800b4
:100624000080fa00000006000200fa000100370012
:1006340000000000101680004200de0061406000ef
:1006440080407800101680004400de0061406000a5
:1006540080c04000501680004400de00614060000d
:1006640000cf4000cd02a9001e407800e34f5000a7
:1006740001003a00cd02a9001e407800e14f50006d
:1006840007003e00cd02a8001000200079000700fa
:10069400cd02a9001000200076000700e5ff370016
:1006a40010168000640060000000e00007003a00bb
:1006b400cd02a800803e20006e000700cd02a900f4
:1006c400803e20006b000700daff370050168000e0
:1006d400700060000000e00007003a00cd02a800ae
:1006e400007d200063000700cd02a900007d2000ea
:1006f40060000700cfff3700101680007000600014
:100704000000e000caff3a00cd02a80080bb200030
:1007140058000700cd02a90080bb20005500070047
:10072400c4ff37000400fa008e80e80080087800d7
:100734000e80e80010007800e80f500003003a0033
:100744000040eb00004f7800120037000e80e800f4
:1007540090007800401f2000808f500003003a0072
:1007640060c6b300004f78000a0037000e80e8002e
:100774009000780000022000808f500003003a00af
:1007840050c5b300004f78000200370050c5b300d5
:10079400004f780011028000000e2000010070005c
:1007a40010028800213a8000f08f2f000080600042
:1007b400203a88001e01fb0080072000a1092000c8
:1007c4003374200080497800814978008249780098
:1007d4001200200060042000710520002374200012
:1007e4008049780081497800824978004207a8004e
:1007f40000000000103a8000610060000000e0008a
:10080400fcff3a0011028000f0f12f00008060002c
:10081400100288000080fa00000006000000fa00c0
:10082400c9e2a9004fe7a8004fa7a9004f87a90074
:10083400713a8000f00f2f0000806000703a880049
:100844000080eb006019880000022000b5ff07005b
:100854005fff070000c8bf00e14f500002003a00ec
:100864000068ef0070ff0700cd02a9000140fe0000
:10087400f8ff37000200fa00000f780011e1a80029
:10088400a780a800a7a0a800a7c0a80094e0a8007b
:1008940084e0a9001e0078004400dd0060088800a0
:0c08a4000140fe000080fa000000060089
:020000040000fa
:1008b000000800000200000000000000000000002e
:020000040000fa
:0200000401f009
:04000000ffffff00ff
:020000040000fa
:0200000401f009
:04000800ffffff00f7
:020000040000fa
:0200000401f009
:04000c0000000000f0
:020000040000fa
:0200000401f009
:040010005300000099
:020000040000fa
:0200000401f009
:0400140040000000a8
:020000040000fa
:0200000401f009
:0400180010000000d4
:020000040000fa
:0200000401f009
:04001c00c20000001e
:020000040000fa
:0200000401f009
:0400200017000000c5
:00000001FF
