:020000040000fa
:080000000002040000000000f2
:020000040000fa
:04000800da03000017
:020000040000fa
:04000c00da03000013
:020000040000fa
:04001000da0300000f
:020000040000fa
:04001400da0300000b
:020000040000fa
:04001800da03000007
:020000040000fa
:04001c00da03000003
:020000040000fa
:04002000da030000ff
:020000040000fa
:04002400da030000fb
:020000040000fa
:04002800da030000f7
:020000040000fa
:04002c00da030000f3
:020000040000fa
:04003000da030000ef
:020000040000fa
:04003400da030000eb
:020000040000fa
:04003800da030000e7
:020000040000fa
:04003c00da030000e3
:020000040000fa
:04004000da030000df
:020000040000fa
:04004400c8030000ed
:020000040000fa
:04004800da030000d7
:020000040000fa
:04004c00da030000d3
:020000040000fa
:04005000da030000cf
:020000040000fa
:04005400da030000cb
:020000040000fa
:04005800da030000c7
:020000040000fa
:04005c00da030000c3
:020000040000fa
:04006000da030000bf
:020000040000fa
:04006400da030000bb
:020000040000fa
:04006800da030000b7
:020000040000fa
:04006c00da030000b3
:020000040000fa
:04007000da030000af
:020000040000fa
:04007400c8020000be
:020000040000fa
:04007800da030000a7
:020000040000fa
:04007c00da030000a3
:020000040000fa
:04008000da0300009f
:020000040000fa
:04008400da0300009b
:020000040000fa
:04008800da03000097
:020000040000fa
:04008c00da03000093
:020000040000fa
:04009000da0300008f
:020000040000fa
:04009400da0300008b
:020000040000fa
:04009800da03000087
:020000040000fa
:04009c00da03000083
:020000040000fa
:0400a000da0300007f
:020000040000fa
:0400a400d203000083
:020000040000fa
:0400a800da03000077
:020000040000fa
:0400ac00da03000073
:020000040000fa
:0400b000da0300006f
:020000040000fa
:0400b400da0300006b
:020000040000fa
:0400b800da03000067
:020000040000fa
:0400bc00da03000063
:020000040000fa
:0400c000da0300005f
:020000040000fa
:0400c400da0300005b
:020000040000fa
:0400c800da03000057
:020000040000fa
:0400cc00da03000053
:020000040000fa
:0400d000da0300004f
:020000040000fa
:0400d400da0300004b
:020000040000fa
:0400d800da03000047
:020000040000fa
:0400dc00da03000043
:020000040000fa
:0400e000da0300003f
:020000040000fa
:0400e400da0300003b
:020000040000fa
:0400e800da03000037
:020000040000fa
:0400ec00da03000033
:020000040000fa
:0400f000da0300002f
:020000040000fa
:0400f400da0300002b
:020000040000fa
:0400f800da03000027
:020000040000fa
:0400fc00da03000023
:020000040000fa
:04010000da0300001e
:020000040000fa
:04010400da0300001a
:020000040000fa
:04010800da03000016
:020000040000fa
:04010c00da03000012
:020000040000fa
:04011000da0300000e
:020000040000fa
:04011400da0300000a
:020000040000fa
:04011800da03000006
:020000040000fa
:04011c00da03000002
:020000040000fa
:04012000da030000fe
:020000040000fa
:04012400da030000fa
:020000040000fa
:04012800da030000f6
:020000040000fa
:04012c00da030000f2
:020000040000fa
:04013000da030000ee
:020000040000fa
:04013400da030000ea
:020000040000fa
:04013800da030000e6
:020000040000fa
:04013c00da030000e2
:020000040000fa
:04014000da030000de
:020000040000fa
:04014400da030000da
:020000040000fa
:04014800da030000d6
:020000040000fa
:04014c00da030000d2
:020000040000fa
:04015000da030000ce
:020000040000fa
:04015400da030000ca
:020000040000fa
:04015800da030000c6
:020000040000fa
:04015c00da030000c2
:020000040000fa
:04020800da03000015
:020000040000fa
:04020c00da03000011
:020000040000fa
:04021000da0300000d
:020000040000fa
:04021400da03000009
:020000040000fa
:04021800da03000005
:020000040000fa
:04021c00da03000001
:020000040000fa
:04022000da030000fd
:020000040000fa
:04022400da030000f9
:020000040000fa
:04022800da030000f5
:020000040000fa
:04022c00da030000f1
:020000040000fa
:04023000da030000ed
:020000040000fa
:04023400da030000e9
:020000040000fa
:04023800da030000e5
:020000040000fa
:04023c00da030000e1
:020000040000fa
:04024000da030000dd
:020000040000fa
:04024400c8030000eb
:020000040000fa
:04024800da030000d5
:020000040000fa
:04024c00da030000d1
:020000040000fa
:04025000da030000cd
:020000040000fa
:04025400da030000c9
:020000040000fa
:04025800da030000c5
:020000040000fa
:04025c00da030000c1
:020000040000fa
:04026000da030000bd
:020000040000fa
:04026400da030000b9
:020000040000fa
:04026800da030000b5
:020000040000fa
:04026c00da030000b1
:020000040000fa
:04027000da030000ad
:020000040000fa
:04027400c8020000bc
:020000040000fa
:04027800da030000a5
:020000040000fa
:04027c00da030000a1
:020000040000fa
:04028000da0300009d
:020000040000fa
:04028400da03000099
:020000040000fa
:04028800da03000095
:020000040000fa
:04028c00da03000091
:020000040000fa
:04029000da0300008d
:020000040000fa
:04029400da03000089
:020000040000fa
:04029800da03000085
:020000040000fa
:04029c00da03000081
:020000040000fa
:0402a000da0300007d
:020000040000fa
:0402a400d203000081
:020000040000fa
:0402a800da03000075
:020000040000fa
:0402ac00da03000071
:020000040000fa
:0402b000da0300006d
:020000040000fa
:0402b400da03000069
:020000040000fa
:0402b800da03000065
:020000040000fa
:0402bc00da03000061
:020000040000fa
:0402c000da0300005d
:020000040000fa
:0402c400da03000059
:020000040000fa
:0402c800da03000055
:020000040000fa
:0402cc00da03000051
:020000040000fa
:0402d000da0300004d
:020000040000fa
:0402d400da03000049
:020000040000fa
:0402d800da03000045
:020000040000fa
:0402dc00da03000041
:020000040000fa
:0402e000da0300003d
:020000040000fa
:0402e400da03000039
:020000040000fa
:0402e800da03000035
:020000040000fa
:0402ec00da03000031
:020000040000fa
:0402f000da0300002d
:020000040000fa
:0402f400da03000029
:020000040000fa
:0402f800da03000025
:020000040000fa
:0402fc00da03000021
:020000040000fa
:04030000da0300001c
:020000040000fa
:04030400da03000018
:020000040000fa
:04030800da03000014
:020000040000fa
:04030c00da03000010
:020000040000fa
:04031000da0300000c
:020000040000fa
:04031400da03000008
:020000040000fa
:04031800da03000004
:020000040000fa
:04031c00da03000000
:020000040000fa
:04032000da030000fc
:020000040000fa
:04032400da030000f8
:020000040000fa
:04032800da030000f4
:020000040000fa
:04032c00da030000f0
:020000040000fa
:04033000da030000ec
:020000040000fa
:04033400da030000e8
:020000040000fa
:04033800da030000e4
:020000040000fa
:04033c00da030000e0
:020000040000fa
:04034000da030000dc
:020000040000fa
:04034400da030000d8
:020000040000fa
:04034800da030000d4
:020000040000fa
:04034c00da030000d0
:020000040000fa
:04035000da030000cc
:020000040000fa
:04035400da030000c8
:020000040000fa
:04035800da030000c4
:020000040000fa
:04035c00da030000c0
:020000040000fa
:100400008f8020000edf20000e0188000000000019
:10041000000020000000e000020032000001200087
:100420002002880014000700e40007000000e0003c
:1004300003003a00808920000100200002003700fc
:100440000000200001002000810f70000100320038
:1004500014000700000020000000e000020032004d
:100460000000020000000000580802000000000028
:100470000040da000000fe004440a900e00a20002d
:100480000000e0000300320000002000a00188000e
:100490004440a800000006008a1f78008b1f7800e7
:1004a0000000060091018800800478000000eb0045
:1004b0001a003700e284440032a0b4009905ba0063
:1004c000e284440032a0b4009906ba00e2844400f9
:1004d00032a0b4000006eb00476fde00fd07b2005b
:1004e000636ce10003003a00ebff07000000eb0043
:1004f0000a003700606ce10004003a00005deb0088
:100500008b05e900fdff3e00040037006168e10053
:10051000010032000086eb000b00070019c7ba008b
:100520001905ba000e04e00003003a000a00e000da
:10053000e0ff3a0000000600fe07b2009e018800be
:100540008a047800f5ff3700395dba008b05e900b1
:100550000c003200295dba008b05e900080032006a
:100560000c00e00003003a00e284440032a0b40032
:10057000f5ff370019ddba008b05e900faff3a00f4
:100580008904e800e184440032a0b40000000600c1
:10059000801f78000000fa003004800068006000ce
:1005a0000000e00076003200101680006400600059
:1005b0000000e0000a003a00501680007000600061
:1005c0000000e0000600320010168000700060009d
:1005d0000000e000020032000468ef00680037000d
:1005e00010168000640060000000e0000b00320084
:1005f00050168000700060000000e00007003a0024
:1006000010168000700060000000e000030032005f
:1006100010c0b30004e8b70059003700101680007e
:10062000640060000000e0000b0032005016800003
:10063000700060000000e00007003200101680002b
:10064000700060000000e00003003a0020c0b3002a
:1006500004e8b7004a00370010168000640060000c
:100660000000e0000b003a005016800070006000af
:100670000000e00007003a001016800070006000e3
:100680000000e00003003a0030c0b30004e8b70007
:100690003b00370010168000640060000000e0009e
:1006a0000b00320050168000700060000000e00077
:1006b0000700320010168000700060000000e000ab
:1006c0000300320040c0b30004e8b7002c0037003c
:1006d00010168000640060000000e0000b003a008b
:1006e00050168000700060000000e00007003a0033
:1006f00010168000700060000000e000030032006f
:1007000050c0b30004e8b7001d0037001016800089
:10071000640060000000e0000b003a00501680000a
:10072000700060000000e00007003200101680003a
:10073000700060000000e00003003a0060c0b300f9
:1007400004e8b7000e003700101680006400600057
:100750000000e0000a0032005016800070006000c7
:100760000000e00006003a001016800070006000f3
:100770000000e00002003a0070c0b30004e8b700d7
:100780008660a9000080fa004f0078000040060053
:100790000000fa0084e0a90011e1a9000080fa003d
:1007a000004006000000fa0087e0a9000080fa007f
:1007b000004006000040da000000fe0000000500d6
:1007c00080007800040037003104e00002003a00a5
:1007d0000000510000000600010178000108a3009c
:1007e000f9ff3a008101780031017800f4ef2f0021
:1007f000020242000281ea000201620004082800ad
:1008000004016100f7ff32008300780001017800e5
:100810003104e000fdff3a00000051000000060036
:020000040000fa
:100820000a0d00004e6f000074680000696e000041
:10083000672000007072000065730000736500009f
:10084000640a0000000a00000d4100006c6c00000a
:10085000205000004273000020700000726500000c
:1008600073730000656400000a0000000a0d0000b8
:100870005042000031200000616e00006420000042
:10088000504200003220000061720000652000002c
:10089000707200006573000073650000640a000058
:1008a000000a00000d5000004231000020610000ed
:1008b0006e64000020500000423300002061000000
:1008c0007265000020700000726500007373000004
:1008d000656400000a0000000a0d0000504200009c
:1008e00032200000616e00006420000050420000d1
:1008f000332000006172000065200000707200006b
:100900006573000073650000640a0000000a0000bf
:100910000d500000423100002069000073200000eb
:10092000707200006573000073650000640a0000c7
:10093000000a00000d500000423200002069000053
:100940007320000070720000657300007365000082
:10095000640a0000000a00000d500000423300004d
:1009600020690000732000007072000065730000b1
:0c09700073650000640a00000000000035
:020000040000fa
:10097c000000fa00c802a900c822a800cc02a800f6
:10098c008000280080118800113a800000002700a8
:10099c008080600000002600808f500003003a0029
:1009ac00c0002000c011880010003700113a8000f0
:1009bc00000027008080600000002500808f500020
:1009cc0003003a00c0002000c01188000700370067
:1009dc00113a800000002700008060000000e00059
:1009ec0002003a0070062000c011880000002200ae
:1009fc009011880087e0a90091058000f0ff280085
:100a0c0080806000000023000100700090058800c9
:100a1c0097e0a80087c0a90091058000f08f2f00f7
:100a2c000080600000a0a0009005880097c0a8007e
:100a3c0031e2a8003342a8000080fa000000060052
:100a4c000400fa00004f78000e80e80001087800de
:100a5c000f0037000140fe000100370000000000cd
:100a6c009111800000202000008060000000e00058
:100a7c00f8ff3a001e00fb00a01188000e80e80071
:100a8c00100078008000e9000e80e8000108780072
:100a9c000e80e800100078000000e000efff3a0044
:100aac000000000091118000001020000080600008
:100abc000000e000fbff32000080fa00000006009e
:100acc000400fa008e80e800800878008040eb007b
:100adc000e00e800014878001100200000c2b300ad
:100aec00d7ff07001100200000c3b300d4ff07009c
:100afc001100200080c7b300d1ff070030c0b30045
:100b0c00004f78001f0037001e00fb004200dd0084
:100b1c008e80e800910078000008de00004078002c
:100b2c00ef4060000e00e800014878000e00e8007d
:100b3c0010407800e94f5000070034000e00e80028
:100b4c001040780072c3b300824040000e00e800f1
:100b5c0001487800060037000e00e80010407800cd
:100b6c0002c3b300824040000e00e8000148780048
:100b7c00110020000e00e80010407800b0ff0700c4
:100b8c001e4fe9001e4078000004e000deff3d002f
:100b9c001100200000c2b300a9ff07008000eb0089
:100bac000e80e800010878000080fa0000000600c2
:100bbc000600fa000e81e8000089be008040eb00c0
:100bcc000e00e800014878001100200000c2b300bc
:100bdc009bff07001100200000c3b30098ff070023
:100bec001100200080c7b30095ff070070c0b30050
:100bfc00004f7800240037001e00fb004201dd008e
:100c0c000e80e8001000be00820178008301e9002c
:100c1c00030033008100d1000080d300fbff3700bc
:100c2c0000407800ef4060000e00e80001487800ba
:100c3c000e00e80010407800e94f50000700340027
:100c4c000e00e8001040780072c3b30082404000f0
:100c5c000e00e80001487800060037000e00e8009e
:100c6c001040780003c3b300834040000e00e8003e
:100c7c0001487800110020000e00e80010407800b8
:100c8c006fff07001e4fe9001e4078000004e000d3
:100c9c00d9ff3d001100200000c2b30068ff07001f
:100cac006000b8000e81e8000089be000080fa00e8
:100cbc00000006000a00fa00e800470080087800ef
:100ccc00e2004700010009008018eb008058eb009f
:100cdc000040eb00004f78000040eb00004f780024
:100cec00150037009e81fb0068004700100178005a
:100cfc00d0cc2c000010b8004308de006a00b9000c
:100d0c00000078000000510080407800030047008c
:100d1c000080e800014878006800470090007800e7
:100d2c00d0cc2c000008b800c308de0068004700d7
:100d3c00010878001e4fe8001e407800e44f500078
:100d4c00e8ff36001100200000c2b3003cff070092
:100d5c0050c0b300004f78000c0037001e80fb0021
:100d6c000000e900800047000e00e8008180e800e8
:100d7c00114878000e00e800104078000043b000e5
:100d8c00110020002eff07001e4fe9001e407800c6
:100d9c000004e000f1ff3a001100200000c2b30093
:100dac0027ff07000080fa00000006000400fa008c
:100dbc008e80e800800878000000eb00000f7800bf
:100dcc00070037000e80e800100078001e0040007d
:100ddc00104078001100200019ff07001e0fe800da
:100dec000e80e8001000780072fe07009e0f500085
:100dfc00f4ff31000080fa00000006000000fa0049
:100e0c00c902a900cd02a900c082a8006800a800f0
:100e1c006000a800c882a8006820a8006020a80074
:100e2c00c042a8006bc0a80063c0a8008660a900df
:100e3c0061058000f0ff2800808060000000260023
:100e4c0001007000600588009660a8000080fa0020
:100e5c00000006000200fa0001003700000000004c
:100e6c00101680004200de00614060008040780077
:100e7c00101680004400de006140600080c040001d
:100e8c00501680004400de006140600000cf40003e
:100e9c0004c8bf00e44f500003003a00cd02a90083
:100eac0000412800c1ff070004c8bf00e34f5000f9
:100ebc0004003a0030422800bcff0700cd02a80015
:100ecc00e7ff37001e407800e14f500013003e0052
:100edc0004c8bf00e54f500003003a0060432800ef
:100eec00b2ff07000b00370004c8bf00e64f5000ec
:100efc0003003a0010452800acff0700050037003e
:100f0c0004c8bf00e74f500002003a00c04628005a
:100f1c00a6ff0700cd02a800d1ff370004c8bf0010
:100f2c000004e00009003a00704828009fff070009
:100f3c00cd02a800401f20006c000700cd02a900c4
:100f4c00401f200069000700c5ff370004c8bf0020
:100f5c00e14f500009003a009049280093ff070028
:100f6c00cd02a800007d200060000700cd02a90082
:100f7c00007d20005d000700b9ff370004c8bf00ea
:100f8c00e24f5000b5ff3a00b04a280087ff070037
:100f9c00cd02a80080bb200054000700cd02a900a0
:100fac0080bb200051000700adff37000400fa00a1
:100fbc008e80e800800878000e80e8001000780031
:100fcc00e80f500003003a000040eb00004f78009f
:100fdc00120037000e80e80090007800401f2000bf
:100fec00808f500003003a0060c6b300004f7800b9
:100ffc000a0037000e80e800900078000002200004
:10100c00808f500003003a0050c5b300004f7800a9
:10101c000200370050c5b300004f78001102800069
:10102c00000e20000100700010028800213a8000a0
:10103c00f08f2f0000806000203a88001e01fb001a
:10104c0080072000a109200033742000804978001b
:10105c008149780082497800120020006004200049
:10106c0071052000237420008049780081497800a4
:10107c00824978004207a80000000000103a800066
:10108c00610060000000e000fcff3a0011028000eb
:10109c00f0f12f0000806000100288000080fa0040
:1010ac00000006000000fa00c9e2a9004fe7a80002
:1010bc004fa7a9004f87a900713a8000f00f2f00ad
:1010cc0000806000703a88000080eb006019880096
:1010dc0000022000b5ff070048ff070024fe0700b0
:1010ec005cff07000140fe00fdff37000200fa0024
:1010fc00000f780011e1a800a780a800a7a0a80005
:10110c00a7c0a80094e0a80084e0a9001e00780005
:10111c004400dd00600888000140fe000080fa00f9
:04112c0000000600b9
:020000040000fa
:101130000008000004000000000000000408000097
:101140000200000002000000040000000608000089
:0c11500002000000000000000000000091
:020000040000fa
:0200000401f009
:04000000ffffff00ff
:020000040000fa
:0200000401f009
:04000800ffffff00f7
:020000040000fa
:0200000401f009
:04000c0000000000f0
:020000040000fa
:0200000401f009
:040010005300000099
:020000040000fa
:0200000401f009
:0400140040000000a8
:020000040000fa
:0200000401f009
:0400180010000000d4
:020000040000fa
:0200000401f009
:04001c00c20000001e
:020000040000fa
:0200000401f009
:0400200017000000c5
:00000001FF
